{
  "_format": "hh-sol-artifact-1",
  "contractName": "RentKarma",
  "sourceName": "contracts/rentkarma.sol",
  "abi": [
    {
      "inputs": [],
      "stateMutability": "nonpayable",
      "type": "constructor"
    },
    {
      "inputs": [
        {
          "internalType": "address",
          "name": "a",
          "type": "address"
        },
        {
          "internalType": "string",
          "name": "name",
          "type": "string"
        },
        {
          "internalType": "string",
          "name": "permanentAddress",
          "type": "string"
        },
        {
          "internalType": "string",
          "name": "aadharNo",
          "type": "string"
        },
        {
          "internalType": "uint256",
          "name": "creditScore",
          "type": "uint256"
        }
      ],
      "name": "addPerson",
      "outputs": [],
      "stateMutability": "nonpayable",
      "type": "function"
    },
    {
      "inputs": [
        {
          "internalType": "address",
          "name": "landLord",
          "type": "address"
        },
        {
          "internalType": "address",
          "name": "tenant",
          "type": "address"
        },
        {
          "internalType": "string",
          "name": "property_id",
          "type": "string"
        },
        {
          "internalType": "uint256",
          "name": "rentAgreed",
          "type": "uint256"
        },
        {
          "internalType": "uint256",
          "name": "depositAgreed",
          "type": "uint256"
        },
        {
          "internalType": "uint256",
          "name": "guaranteeFees",
          "type": "uint256"
        }
      ],
      "name": "addRentAgreement",
      "outputs": [],
      "stateMutability": "nonpayable",
      "type": "function"
    },
    {
      "inputs": [
        {
          "internalType": "string",
          "name": "property_id",
          "type": "string"
        },
        {
          "internalType": "address",
          "name": "guarantor",
          "type": "address"
        }
      ],
      "name": "addRentGuarantor",
      "outputs": [],
      "stateMutability": "nonpayable",
      "type": "function"
    },
    {
      "inputs": [
        {
          "internalType": "string",
          "name": "property_id",
          "type": "string"
        }
      ],
      "name": "authorizeRentAgreement",
      "outputs": [],
      "stateMutability": "payable",
      "type": "function"
    },
    {
      "inputs": [
        {
          "internalType": "string",
          "name": "property_id",
          "type": "string"
        },
        {
          "internalType": "uint256",
          "name": "landlordDamages",
          "type": "uint256"
        }
      ],
      "name": "disputeDamages",
      "outputs": [],
      "stateMutability": "payable",
      "type": "function"
    },
    {
      "inputs": [],
      "name": "getAllAgreements",
      "outputs": [
        {
          "components": [
            {
              "internalType": "string",
              "name": "property_id",
              "type": "string"
            },
            {
              "internalType": "string",
              "name": "propertyAddress",
              "type": "string"
            },
            {
              "internalType": "address payable",
              "name": "landLord",
              "type": "address"
            },
            {
              "internalType": "address payable",
              "name": "tenant",
              "type": "address"
            },
            {
              "internalType": "address payable",
              "name": "guarantor",
              "type": "address"
            },
            {
              "internalType": "address payable[]",
              "name": "independentAssessors",
              "type": "address[]"
            },
            {
              "internalType": "uint256",
              "name": "guaranteeFees",
              "type": "uint256"
            },
            {
              "internalType": "uint256",
              "name": "rentAgreed",
              "type": "uint256"
            },
            {
              "internalType": "uint256",
              "name": "depositAgreed",
              "type": "uint256"
            },
            {
              "components": [
                {
                  "internalType": "uint256",
                  "name": "tenantDamages",
                  "type": "uint256"
                },
                {
                  "internalType": "uint256",
                  "name": "landlordDamages",
                  "type": "uint256"
                },
                {
                  "internalType": "uint256",
                  "name": "assessorAverage",
                  "type": "uint256"
                },
                {
                  "internalType": "uint256",
                  "name": "paidToTenant",
                  "type": "uint256"
                },
                {
                  "internalType": "uint256",
                  "name": "paidToLandlord",
                  "type": "uint256"
                },
                {
                  "internalType": "uint256",
                  "name": "tenantAssessmentFee",
                  "type": "uint256"
                },
                {
                  "internalType": "uint256",
                  "name": "landlordAssessmentFee",
                  "type": "uint256"
                },
                {
                  "internalType": "uint256[]",
                  "name": "assessorDamages",
                  "type": "uint256[]"
                }
              ],
              "internalType": "struct RentKarma.Repayment",
              "name": "repayment",
              "type": "tuple"
            },
            {
              "internalType": "uint8",
              "name": "status",
              "type": "uint8"
            }
          ],
          "internalType": "struct RentKarma.RentAgreement[]",
          "name": "",
          "type": "tuple[]"
        }
      ],
      "stateMutability": "view",
      "type": "function"
    },
    {
      "inputs": [
        {
          "internalType": "address",
          "name": "person_id",
          "type": "address"
        }
      ],
      "name": "getPerson",
      "outputs": [
        {
          "components": [
            {
              "internalType": "string",
              "name": "name",
              "type": "string"
            },
            {
              "internalType": "string",
              "name": "permanentAddress",
              "type": "string"
            },
            {
              "internalType": "string",
              "name": "aadharNo",
              "type": "string"
            },
            {
              "internalType": "bool",
              "name": "isOnboarded",
              "type": "bool"
            },
            {
              "internalType": "uint256",
              "name": "creditScore",
              "type": "uint256"
            },
            {
              "internalType": "uint256",
              "name": "creditLimit",
              "type": "uint256"
            },
            {
              "internalType": "string[]",
              "name": "propertiesAsLandlord",
              "type": "string[]"
            },
            {
              "internalType": "string[]",
              "name": "propertiesAsTenant",
              "type": "string[]"
            },
            {
              "internalType": "string[]",
              "name": "propertiesAsGuarantor",
              "type": "string[]"
            }
          ],
          "internalType": "struct RentKarma.Person",
          "name": "",
          "type": "tuple"
        }
      ],
      "stateMutability": "view",
      "type": "function"
    },
    {
      "inputs": [
        {
          "internalType": "string",
          "name": "property_id",
          "type": "string"
        }
      ],
      "name": "getRentAgreementDetails",
      "outputs": [
        {
          "components": [
            {
              "internalType": "string",
              "name": "property_id",
              "type": "string"
            },
            {
              "internalType": "string",
              "name": "propertyAddress",
              "type": "string"
            },
            {
              "internalType": "address payable",
              "name": "landLord",
              "type": "address"
            },
            {
              "internalType": "address payable",
              "name": "tenant",
              "type": "address"
            },
            {
              "internalType": "address payable",
              "name": "guarantor",
              "type": "address"
            },
            {
              "internalType": "address payable[]",
              "name": "independentAssessors",
              "type": "address[]"
            },
            {
              "internalType": "uint256",
              "name": "guaranteeFees",
              "type": "uint256"
            },
            {
              "internalType": "uint256",
              "name": "rentAgreed",
              "type": "uint256"
            },
            {
              "internalType": "uint256",
              "name": "depositAgreed",
              "type": "uint256"
            },
            {
              "components": [
                {
                  "internalType": "uint256",
                  "name": "tenantDamages",
                  "type": "uint256"
                },
                {
                  "internalType": "uint256",
                  "name": "landlordDamages",
                  "type": "uint256"
                },
                {
                  "internalType": "uint256",
                  "name": "assessorAverage",
                  "type": "uint256"
                },
                {
                  "internalType": "uint256",
                  "name": "paidToTenant",
                  "type": "uint256"
                },
                {
                  "internalType": "uint256",
                  "name": "paidToLandlord",
                  "type": "uint256"
                },
                {
                  "internalType": "uint256",
                  "name": "tenantAssessmentFee",
                  "type": "uint256"
                },
                {
                  "internalType": "uint256",
                  "name": "landlordAssessmentFee",
                  "type": "uint256"
                },
                {
                  "internalType": "uint256[]",
                  "name": "assessorDamages",
                  "type": "uint256[]"
                }
              ],
              "internalType": "struct RentKarma.Repayment",
              "name": "repayment",
              "type": "tuple"
            },
            {
              "internalType": "uint8",
              "name": "status",
              "type": "uint8"
            }
          ],
          "internalType": "struct RentKarma.RentAgreement",
          "name": "",
          "type": "tuple"
        }
      ],
      "stateMutability": "view",
      "type": "function"
    },
    {
      "inputs": [
        {
          "internalType": "address",
          "name": "person_id",
          "type": "address"
        }
      ],
      "name": "getRentedInProperties",
      "outputs": [
        {
          "components": [
            {
              "internalType": "string",
              "name": "property_id",
              "type": "string"
            },
            {
              "internalType": "string",
              "name": "propertyAddress",
              "type": "string"
            },
            {
              "internalType": "address payable",
              "name": "landLord",
              "type": "address"
            },
            {
              "internalType": "address payable",
              "name": "tenant",
              "type": "address"
            },
            {
              "internalType": "address payable",
              "name": "guarantor",
              "type": "address"
            },
            {
              "internalType": "address payable[]",
              "name": "independentAssessors",
              "type": "address[]"
            },
            {
              "internalType": "uint256",
              "name": "guaranteeFees",
              "type": "uint256"
            },
            {
              "internalType": "uint256",
              "name": "rentAgreed",
              "type": "uint256"
            },
            {
              "internalType": "uint256",
              "name": "depositAgreed",
              "type": "uint256"
            },
            {
              "components": [
                {
                  "internalType": "uint256",
                  "name": "tenantDamages",
                  "type": "uint256"
                },
                {
                  "internalType": "uint256",
                  "name": "landlordDamages",
                  "type": "uint256"
                },
                {
                  "internalType": "uint256",
                  "name": "assessorAverage",
                  "type": "uint256"
                },
                {
                  "internalType": "uint256",
                  "name": "paidToTenant",
                  "type": "uint256"
                },
                {
                  "internalType": "uint256",
                  "name": "paidToLandlord",
                  "type": "uint256"
                },
                {
                  "internalType": "uint256",
                  "name": "tenantAssessmentFee",
                  "type": "uint256"
                },
                {
                  "internalType": "uint256",
                  "name": "landlordAssessmentFee",
                  "type": "uint256"
                },
                {
                  "internalType": "uint256[]",
                  "name": "assessorDamages",
                  "type": "uint256[]"
                }
              ],
              "internalType": "struct RentKarma.Repayment",
              "name": "repayment",
              "type": "tuple"
            },
            {
              "internalType": "uint8",
              "name": "status",
              "type": "uint8"
            }
          ],
          "internalType": "struct RentKarma.RentAgreement[]",
          "name": "",
          "type": "tuple[]"
        }
      ],
      "stateMutability": "view",
      "type": "function"
    },
    {
      "inputs": [
        {
          "internalType": "address",
          "name": "person_id",
          "type": "address"
        }
      ],
      "name": "getRentedOutProperties",
      "outputs": [
        {
          "components": [
            {
              "internalType": "string",
              "name": "property_id",
              "type": "string"
            },
            {
              "internalType": "string",
              "name": "propertyAddress",
              "type": "string"
            },
            {
              "internalType": "address payable",
              "name": "landLord",
              "type": "address"
            },
            {
              "internalType": "address payable",
              "name": "tenant",
              "type": "address"
            },
            {
              "internalType": "address payable",
              "name": "guarantor",
              "type": "address"
            },
            {
              "internalType": "address payable[]",
              "name": "independentAssessors",
              "type": "address[]"
            },
            {
              "internalType": "uint256",
              "name": "guaranteeFees",
              "type": "uint256"
            },
            {
              "internalType": "uint256",
              "name": "rentAgreed",
              "type": "uint256"
            },
            {
              "internalType": "uint256",
              "name": "depositAgreed",
              "type": "uint256"
            },
            {
              "components": [
                {
                  "internalType": "uint256",
                  "name": "tenantDamages",
                  "type": "uint256"
                },
                {
                  "internalType": "uint256",
                  "name": "landlordDamages",
                  "type": "uint256"
                },
                {
                  "internalType": "uint256",
                  "name": "assessorAverage",
                  "type": "uint256"
                },
                {
                  "internalType": "uint256",
                  "name": "paidToTenant",
                  "type": "uint256"
                },
                {
                  "internalType": "uint256",
                  "name": "paidToLandlord",
                  "type": "uint256"
                },
                {
                  "internalType": "uint256",
                  "name": "tenantAssessmentFee",
                  "type": "uint256"
                },
                {
                  "internalType": "uint256",
                  "name": "landlordAssessmentFee",
                  "type": "uint256"
                },
                {
                  "internalType": "uint256[]",
                  "name": "assessorDamages",
                  "type": "uint256[]"
                }
              ],
              "internalType": "struct RentKarma.Repayment",
              "name": "repayment",
              "type": "tuple"
            },
            {
              "internalType": "uint8",
              "name": "status",
              "type": "uint8"
            }
          ],
          "internalType": "struct RentKarma.RentAgreement[]",
          "name": "",
          "type": "tuple[]"
        }
      ],
      "stateMutability": "view",
      "type": "function"
    },
    {
      "inputs": [
        {
          "internalType": "address payable",
          "name": "assessor",
          "type": "address"
        },
        {
          "internalType": "string",
          "name": "property_id",
          "type": "string"
        },
        {
          "internalType": "uint256",
          "name": "assessorDamages",
          "type": "uint256"
        }
      ],
      "name": "independentAssessment",
      "outputs": [],
      "stateMutability": "payable",
      "type": "function"
    },
    {
      "inputs": [
        {
          "internalType": "string",
          "name": "property_id",
          "type": "string"
        }
      ],
      "name": "landlordAgreeDamages",
      "outputs": [],
      "stateMutability": "nonpayable",
      "type": "function"
    },
    {
      "inputs": [
        {
          "internalType": "uint256",
          "name": "",
          "type": "uint256"
        }
      ],
      "name": "lender_list",
      "outputs": [
        {
          "internalType": "address",
          "name": "",
          "type": "address"
        }
      ],
      "stateMutability": "view",
      "type": "function"
    },
    {
      "inputs": [
        {
          "internalType": "string",
          "name": "property_id",
          "type": "string"
        }
      ],
      "name": "payRent",
      "outputs": [],
      "stateMutability": "payable",
      "type": "function"
    },
    {
      "inputs": [
        {
          "internalType": "uint256",
          "name": "",
          "type": "uint256"
        }
      ],
      "name": "person_list",
      "outputs": [
        {
          "internalType": "address",
          "name": "",
          "type": "address"
        }
      ],
      "stateMutability": "view",
      "type": "function"
    },
    {
      "inputs": [
        {
          "internalType": "address",
          "name": "",
          "type": "address"
        }
      ],
      "name": "person_map",
      "outputs": [
        {
          "internalType": "string",
          "name": "name",
          "type": "string"
        },
        {
          "internalType": "string",
          "name": "permanentAddress",
          "type": "string"
        },
        {
          "internalType": "string",
          "name": "aadharNo",
          "type": "string"
        },
        {
          "internalType": "bool",
          "name": "isOnboarded",
          "type": "bool"
        },
        {
          "internalType": "uint256",
          "name": "creditScore",
          "type": "uint256"
        },
        {
          "internalType": "uint256",
          "name": "creditLimit",
          "type": "uint256"
        }
      ],
      "stateMutability": "view",
      "type": "function"
    },
    {
      "inputs": [
        {
          "internalType": "uint256",
          "name": "",
          "type": "uint256"
        }
      ],
      "name": "rent_agreement_list",
      "outputs": [
        {
          "internalType": "string",
          "name": "",
          "type": "string"
        }
      ],
      "stateMutability": "view",
      "type": "function"
    },
    {
      "inputs": [
        {
          "internalType": "string",
          "name": "",
          "type": "string"
        }
      ],
      "name": "rent_agreement_map",
      "outputs": [
        {
          "internalType": "string",
          "name": "property_id",
          "type": "string"
        },
        {
          "internalType": "string",
          "name": "propertyAddress",
          "type": "string"
        },
        {
          "internalType": "address payable",
          "name": "landLord",
          "type": "address"
        },
        {
          "internalType": "address payable",
          "name": "tenant",
          "type": "address"
        },
        {
          "internalType": "address payable",
          "name": "guarantor",
          "type": "address"
        },
        {
          "internalType": "uint256",
          "name": "guaranteeFees",
          "type": "uint256"
        },
        {
          "internalType": "uint256",
          "name": "rentAgreed",
          "type": "uint256"
        },
        {
          "internalType": "uint256",
          "name": "depositAgreed",
          "type": "uint256"
        },
        {
          "components": [
            {
              "internalType": "uint256",
              "name": "tenantDamages",
              "type": "uint256"
            },
            {
              "internalType": "uint256",
              "name": "landlordDamages",
              "type": "uint256"
            },
            {
              "internalType": "uint256",
              "name": "assessorAverage",
              "type": "uint256"
            },
            {
              "internalType": "uint256",
              "name": "paidToTenant",
              "type": "uint256"
            },
            {
              "internalType": "uint256",
              "name": "paidToLandlord",
              "type": "uint256"
            },
            {
              "internalType": "uint256",
              "name": "tenantAssessmentFee",
              "type": "uint256"
            },
            {
              "internalType": "uint256",
              "name": "landlordAssessmentFee",
              "type": "uint256"
            },
            {
              "internalType": "uint256[]",
              "name": "assessorDamages",
              "type": "uint256[]"
            }
          ],
          "internalType": "struct RentKarma.Repayment",
          "name": "repayment",
          "type": "tuple"
        },
        {
          "internalType": "uint8",
          "name": "status",
          "type": "uint8"
        }
      ],
      "stateMutability": "view",
      "type": "function"
    },
    {
      "inputs": [
        {
          "internalType": "string",
          "name": "property_id",
          "type": "string"
        },
        {
          "internalType": "uint256",
          "name": "tenantDamages",
          "type": "uint256"
        }
      ],
      "name": "vacatedByTenant",
      "outputs": [],
      "stateMutability": "nonpayable",
      "type": "function"
    }
  ],
  "bytecode": "0x608060405234801561001057600080fd5b5033600560006101000a81548173ffffffffffffffffffffffffffffffffffffffff021916908373ffffffffffffffffffffffffffffffffffffffff160217905550615abc80620000626000396000f3fe6080604052600436106101145760003560e01c80638f054bbc116100a0578063bc4a257211610064578063bc4a2572146103af578063d0384871146103cb578063e4f5f0b414610408578063e8ab35551461044e578063fc3b52c71461047757610114565b80638f054bbc146102d45780639807efc1146102f05780639f6c000614610319578063aa74869914610356578063ac70b3331461037257610114565b806359306429116100e757806359306429146101e75780635f82decb1461021057806368e84bba146102395780636f379e82146102765780637bef444c146102b857610114565b806322ea00c61461011957806323ed4045146101425780634e6873c71461017f578063552d2d5c146101aa575b600080fd5b34801561012557600080fd5b50610140600480360381019061013b9190613d3b565b6104b4565b005b34801561014e57600080fd5b5061016960048036038101906101649190613de6565b61068a565b60405161017691906142cd565b60405180910390f35b34801561018b57600080fd5b50610194610bdd565b6040516101a191906142cd565b60405180910390f35b3480156101b657600080fd5b506101d160048036038101906101cc9190613de6565b61106e565b6040516101de91906144b4565b60405180910390f35b3480156101f357600080fd5b5061020e60048036038101906102099190614502565b611538565b005b34801561021c57600080fd5b50610237600480360381019061023291906145de565b611889565b005b34801561024557600080fd5b50610260600480360381019061025b919061463e565b6119a7565b60405161026d919061467a565b60405180910390f35b34801561028257600080fd5b5061029d60048036038101906102989190613de6565b6119e6565b6040516102af969594939291906146fd565b60405180910390f35b6102d260048036038101906102cd9190613d3b565b611bc7565b005b6102ee60048036038101906102e99190613d3b565b611d29565b005b3480156102fc57600080fd5b5061031760048036038101906103129190614773565b611ec8565b005b34801561032557600080fd5b50610340600480360381019061033b919061463e565b61223d565b60405161034d9190614822565b60405180910390f35b610370600480360381019061036b9190614870565b6122e9565b005b34801561037e57600080fd5b5061039960048036038101906103949190613d3b565b612bbe565b6040516103a691906149e8565b60405180910390f35b6103c960048036038101906103c491906145de565b612f9c565b005b3480156103d757600080fd5b506103f260048036038101906103ed919061463e565b613121565b6040516103ff919061467a565b60405180910390f35b34801561041457600080fd5b5061042f600480360381019061042a9190614b3a565b613160565b6040516104459a99989796959493929190614c51565b60405180910390f35b34801561045a57600080fd5b5061047560048036038101906104709190614d02565b6133f0565b005b34801561048357600080fd5b5061049e60048036038101906104999190613de6565b613637565b6040516104ab91906142cd565b60405180910390f35b3373ffffffffffffffffffffffffffffffffffffffff16600483836040516104dd929190614d92565b908152602001604051809103902060020160009054906101000a900473ffffffffffffffffffffffffffffffffffffffff1673ffffffffffffffffffffffffffffffffffffffff1614610565576040517f08c379a000000000000000000000000000000000000000000000000000000000815260040161055c90614df7565b60405180910390fd5b600a60048383604051610579929190614d92565b908152602001604051809103902060110160006101000a81548160ff021916908360ff1602179055506000600483836040516105b6929190614d92565b908152602001604051809103902060090160000154600484846040516105dd929190614d92565b9081526020016040518091039020600801546105f99190614e46565b90506004838360405161060d929190614d92565b908152602001604051809103902060030160009054906101000a900473ffffffffffffffffffffffffffffffffffffffff1673ffffffffffffffffffffffffffffffffffffffff166108fc829081150290604051600060405180830381858888f19350505050158015610684573d6000803e3d6000fd5b50505050565b60606000600360008473ffffffffffffffffffffffffffffffffffffffff1673ffffffffffffffffffffffffffffffffffffffff1681526020019081526020016000206006018054905067ffffffffffffffff8111156106ed576106ec614a0f565b5b60405190808252806020026020018201604052801561072657816020015b610713613b8a565b81526020019060019003908161070b5790505b50905060005b600360008573ffffffffffffffffffffffffffffffffffffffff1673ffffffffffffffffffffffffffffffffffffffff16815260200190815260200160002060060180549050811015610bd3576004600360008673ffffffffffffffffffffffffffffffffffffffff1673ffffffffffffffffffffffffffffffffffffffff16815260200190815260200160002060060182815481106107cf576107ce614e7a565b5b906000526020600020016040516107e69190614fa1565b90815260200160405180910390206040518061016001604052908160008201805461081090614ed8565b80601f016020809104026020016040519081016040528092919081815260200182805461083c90614ed8565b80156108895780601f1061085e57610100808354040283529160200191610889565b820191906000526020600020905b81548152906001019060200180831161086c57829003601f168201915b505050505081526020016001820180546108a290614ed8565b80601f01602080910402602001604051908101604052809291908181526020018280546108ce90614ed8565b801561091b5780601f106108f05761010080835404028352916020019161091b565b820191906000526020600020905b8154815290600101906020018083116108fe57829003601f168201915b505050505081526020016002820160009054906101000a900473ffffffffffffffffffffffffffffffffffffffff1673ffffffffffffffffffffffffffffffffffffffff1673ffffffffffffffffffffffffffffffffffffffff1681526020016003820160009054906101000a900473ffffffffffffffffffffffffffffffffffffffff1673ffffffffffffffffffffffffffffffffffffffff1673ffffffffffffffffffffffffffffffffffffffff1681526020016004820160009054906101000a900473ffffffffffffffffffffffffffffffffffffffff1673ffffffffffffffffffffffffffffffffffffffff1673ffffffffffffffffffffffffffffffffffffffff16815260200160058201805480602002602001604051908101604052809291908181526020018280548015610aab57602002820191906000526020600020905b8160009054906101000a900473ffffffffffffffffffffffffffffffffffffffff1673ffffffffffffffffffffffffffffffffffffffff1681526020019060010190808311610a61575b5050505050815260200160068201548152602001600782015481526020016008820154815260200160098201604051806101000160405290816000820154815260200160018201548152602001600282015481526020016003820154815260200160048201548152602001600582015481526020016006820154815260200160078201805480602002602001604051908101604052809291908181526020018280548015610b7857602002820191906000526020600020905b815481526020019060010190808311610b64575b50505050508152505081526020016011820160009054906101000a900460ff1660ff1660ff1681525050828281518110610bb557610bb4614e7a565b5b60200260200101819052508080610bcb90614fb8565b91505061072c565b5080915050919050565b6060600060028054905067ffffffffffffffff811115610c0057610bff614a0f565b5b604051908082528060200260200182016040528015610c3957816020015b610c26613b8a565b815260200190600190039081610c1e5790505b50905060005b60028054905081101561106657600460028281548110610c6257610c61614e7a565b5b90600052602060002001604051610c799190614fa1565b908152602001604051809103902060405180610160016040529081600082018054610ca390614ed8565b80601f0160208091040260200160405190810160405280929190818152602001828054610ccf90614ed8565b8015610d1c5780601f10610cf157610100808354040283529160200191610d1c565b820191906000526020600020905b815481529060010190602001808311610cff57829003601f168201915b50505050508152602001600182018054610d3590614ed8565b80601f0160208091040260200160405190810160405280929190818152602001828054610d6190614ed8565b8015610dae5780601f10610d8357610100808354040283529160200191610dae565b820191906000526020600020905b815481529060010190602001808311610d9157829003601f168201915b505050505081526020016002820160009054906101000a900473ffffffffffffffffffffffffffffffffffffffff1673ffffffffffffffffffffffffffffffffffffffff1673ffffffffffffffffffffffffffffffffffffffff1681526020016003820160009054906101000a900473ffffffffffffffffffffffffffffffffffffffff1673ffffffffffffffffffffffffffffffffffffffff1673ffffffffffffffffffffffffffffffffffffffff1681526020016004820160009054906101000a900473ffffffffffffffffffffffffffffffffffffffff1673ffffffffffffffffffffffffffffffffffffffff1673ffffffffffffffffffffffffffffffffffffffff16815260200160058201805480602002602001604051908101604052809291908181526020018280548015610f3e57602002820191906000526020600020905b8160009054906101000a900473ffffffffffffffffffffffffffffffffffffffff1673ffffffffffffffffffffffffffffffffffffffff1681526020019060010190808311610ef4575b505050505081526020016006820154815260200160078201548152602001600882015481526020016009820160405180610100016040529081600082015481526020016001820154815260200160028201548152602001600382015481526020016004820154815260200160058201548152602001600682015481526020016007820180548060200260200160405190810160405280929190818152602001828054801561100b57602002820191906000526020600020905b815481526020019060010190808311610ff7575b50505050508152505081526020016011820160009054906101000a900460ff1660ff1660ff168152505082828151811061104857611047614e7a565b5b6020026020010181905250808061105e90614fb8565b915050610c3f565b508091505090565b611076613c2f565b600360008373ffffffffffffffffffffffffffffffffffffffff1673ffffffffffffffffffffffffffffffffffffffff168152602001908152602001600020604051806101200160405290816000820180546110d190614ed8565b80601f01602080910402602001604051908101604052809291908181526020018280546110fd90614ed8565b801561114a5780601f1061111f5761010080835404028352916020019161114a565b820191906000526020600020905b81548152906001019060200180831161112d57829003601f168201915b5050505050815260200160018201805461116390614ed8565b80601f016020809104026020016040519081016040528092919081815260200182805461118f90614ed8565b80156111dc5780601f106111b1576101008083540402835291602001916111dc565b820191906000526020600020905b8154815290600101906020018083116111bf57829003601f168201915b505050505081526020016002820180546111f590614ed8565b80601f016020809104026020016040519081016040528092919081815260200182805461122190614ed8565b801561126e5780601f106112435761010080835404028352916020019161126e565b820191906000526020600020905b81548152906001019060200180831161125157829003601f168201915b505050505081526020016003820160009054906101000a900460ff16151515158152602001600482015481526020016005820154815260200160068201805480602002602001604051908101604052809291908181526020016000905b828210156113775783829060005260206000200180546112ea90614ed8565b80601f016020809104026020016040519081016040528092919081815260200182805461131690614ed8565b80156113635780601f1061133857610100808354040283529160200191611363565b820191906000526020600020905b81548152906001019060200180831161134657829003601f168201915b5050505050815260200190600101906112cb565b50505050815260200160078201805480602002602001604051908101604052809291908181526020016000905b828210156114505783829060005260206000200180546113c390614ed8565b80601f01602080910402602001604051908101604052809291908181526020018280546113ef90614ed8565b801561143c5780601f106114115761010080835404028352916020019161143c565b820191906000526020600020905b81548152906001019060200180831161141f57829003601f168201915b5050505050815260200190600101906113a4565b50505050815260200160088201805480602002602001604051908101604052809291908181526020016000905b8282101561152957838290600052602060002001805461149c90614ed8565b80601f01602080910402602001604051908101604052809291908181526020018280546114c890614ed8565b80156115155780601f106114ea57610100808354040283529160200191611515565b820191906000526020600020905b8154815290600101906020018083116114f857829003601f168201915b50505050508152602001906001019061147d565b50505050815250509050919050565b610258811161157c576040517f08c379a000000000000000000000000000000000000000000000000000000000815260040161157390615072565b60405180910390fd5b6000889080600181540180825580915050600190039060005260206000200160009091909190916101000a81548173ffffffffffffffffffffffffffffffffffffffff021916908373ffffffffffffffffffffffffffffffffffffffff1602179055508686600360008b73ffffffffffffffffffffffffffffffffffffffff1673ffffffffffffffffffffffffffffffffffffffff1681526020019081526020016000206000019182611630929190615234565b508282600360008b73ffffffffffffffffffffffffffffffffffffffff1673ffffffffffffffffffffffffffffffffffffffff1681526020019081526020016000206002019182611682929190615234565b508484600360008b73ffffffffffffffffffffffffffffffffffffffff1673ffffffffffffffffffffffffffffffffffffffff16815260200190815260200160002060010191826116d4929190615234565b5080600360008a73ffffffffffffffffffffffffffffffffffffffff1673ffffffffffffffffffffffffffffffffffffffff168152602001908152602001600020600401819055506001600360008a73ffffffffffffffffffffffffffffffffffffffff1673ffffffffffffffffffffffffffffffffffffffff16815260200190815260200160002060030160006101000a81548160ff0219169083151502179055506103208111156117d057620186a0600360008a73ffffffffffffffffffffffffffffffffffffffff1673ffffffffffffffffffffffffffffffffffffffff1681526020019081526020016000206005018190555061187f565b6102bc8111156118295762011170600360008a73ffffffffffffffffffffffffffffffffffffffff1673ffffffffffffffffffffffffffffffffffffffff1681526020019081526020016000206005018190555061187e565b61025881111561187d5761c350600360008a73ffffffffffffffffffffffffffffffffffffffff1673ffffffffffffffffffffffffffffffffffffffff168152602001908152602001600020600501819055505b5b5b5050505050505050565b3373ffffffffffffffffffffffffffffffffffffffff16600484846040516118b2929190614d92565b908152602001604051809103902060030160009054906101000a900473ffffffffffffffffffffffffffffffffffffffff1673ffffffffffffffffffffffffffffffffffffffff161461193a576040517f08c379a000000000000000000000000000000000000000000000000000000000815260040161193190615350565b60405180910390fd5b60036004848460405161194e929190614d92565b908152602001604051809103902060110160006101000a81548160ff021916908360ff160217905550806004848460405161198a929190614d92565b908152602001604051809103902060090160000181905550505050565b600081815481106119b757600080fd5b906000526020600020016000915054906101000a900473ffffffffffffffffffffffffffffffffffffffff1681565b6003602052806000526040600020600091509050806000018054611a0990614ed8565b80601f0160208091040260200160405190810160405280929190818152602001828054611a3590614ed8565b8015611a825780601f10611a5757610100808354040283529160200191611a82565b820191906000526020600020905b815481529060010190602001808311611a6557829003601f168201915b505050505090806001018054611a9790614ed8565b80601f0160208091040260200160405190810160405280929190818152602001828054611ac390614ed8565b8015611b105780601f10611ae557610100808354040283529160200191611b10565b820191906000526020600020905b815481529060010190602001808311611af357829003601f168201915b505050505090806002018054611b2590614ed8565b80601f0160208091040260200160405190810160405280929190818152602001828054611b5190614ed8565b8015611b9e5780601f10611b7357610100808354040283529160200191611b9e565b820191906000526020600020905b815481529060010190602001808311611b8157829003601f168201915b5050505050908060030160009054906101000a900460ff16908060040154908060050154905086565b3373ffffffffffffffffffffffffffffffffffffffff1660048383604051611bf0929190614d92565b908152602001604051809103902060030160009054906101000a900473ffffffffffffffffffffffffffffffffffffffff1673ffffffffffffffffffffffffffffffffffffffff1614611c78576040517f08c379a0000000000000000000000000000000000000000000000000000000008152600401611c6f906153bc565b60405180910390fd5b60048282604051611c8a929190614d92565b908152602001604051809103902060020160009054906101000a900473ffffffffffffffffffffffffffffffffffffffff1673ffffffffffffffffffffffffffffffffffffffff166108fc60048484604051611ce7929190614d92565b9081526020016040518091039020600701549081150290604051600060405180830381858888f19350505050158015611d24573d6000803e3d6000fd5b505050565b3373ffffffffffffffffffffffffffffffffffffffff1660048383604051611d52929190614d92565b908152602001604051809103902060030160009054906101000a900473ffffffffffffffffffffffffffffffffffffffff1673ffffffffffffffffffffffffffffffffffffffff1614611dda576040517f08c379a0000000000000000000000000000000000000000000000000000000008152600401611dd19061544e565b60405180910390fd5b600160048383604051611dee929190614d92565b908152602001604051809103902060110160006101000a81548160ff021916908360ff16021790555060048282604051611e29929190614d92565b908152602001604051809103902060040160009054906101000a900473ffffffffffffffffffffffffffffffffffffffff1673ffffffffffffffffffffffffffffffffffffffff166108fc60048484604051611e86929190614d92565b9081526020016040518091039020600601549081150290604051600060405180830381858888f19350505050158015611ec3573d6000803e3d6000fd5b505050565b60008311611f0b576040517f08c379a0000000000000000000000000000000000000000000000000000000008152600401611f02906154ba565b60405180910390fd5b60008211611f4e576040517f08c379a0000000000000000000000000000000000000000000000000000000008152600401611f459061554c565b60405180910390fd5b6002858590918060018154018082558091505060019003906000526020600020016000909192909192909192909192509182611f8b929190615234565b50848460048787604051611fa0929190614d92565b90815260200160405180910390206000019182611fbe929190615234565b508660048686604051611fd2929190614d92565b908152602001604051809103902060020160006101000a81548173ffffffffffffffffffffffffffffffffffffffff021916908373ffffffffffffffffffffffffffffffffffffffff1602179055508560048686604051612034929190614d92565b908152602001604051809103902060030160006101000a81548173ffffffffffffffffffffffffffffffffffffffff021916908373ffffffffffffffffffffffffffffffffffffffff1602179055508260048686604051612096929190614d92565b90815260200160405180910390206007018190555081600486866040516120be929190614d92565b90815260200160405180910390206008018190555080600486866040516120e6929190614d92565b90815260200160405180910390206006018190555060006004868660405161210f929190614d92565b908152602001604051809103902060110160006101000a81548160ff021916908360ff160217905550600360008773ffffffffffffffffffffffffffffffffffffffff1673ffffffffffffffffffffffffffffffffffffffff1681526020019081526020016000206007018585909180600181540180825580915050600190039060005260206000200160009091929091929091929091925091826121b5929190615234565b50600360008873ffffffffffffffffffffffffffffffffffffffff1673ffffffffffffffffffffffffffffffffffffffff168152602001908152602001600020600601858590918060018154018082558091505060019003906000526020600020016000909192909192909192909192509182612233929190615234565b5050505050505050565b6002818154811061224d57600080fd5b90600052602060002001600091509050805461226890614ed8565b80601f016020809104026020016040519081016040528092919081815260200182805461229490614ed8565b80156122e15780601f106122b6576101008083540402835291602001916122e1565b820191906000526020600020905b8154815290600101906020018083116122c457829003601f168201915b505050505081565b3373ffffffffffffffffffffffffffffffffffffffff1660048484604051612312929190614d92565b908152602001604051809103902060020160009054906101000a900473ffffffffffffffffffffffffffffffffffffffff1673ffffffffffffffffffffffffffffffffffffffff160361239a576040517f08c379a0000000000000000000000000000000000000000000000000000000008152600401612391906155de565b60405180910390fd5b3373ffffffffffffffffffffffffffffffffffffffff16600484846040516123c3929190614d92565b908152602001604051809103902060030160009054906101000a900473ffffffffffffffffffffffffffffffffffffffff1673ffffffffffffffffffffffffffffffffffffffff160361244b576040517f08c379a000000000000000000000000000000000000000000000000000000000815260040161244290615670565b60405180910390fd5b806004848460405161245e929190614d92565b90815260200160405180910390206009016000015411156124b4576040517f08c379a00000000000000000000000000000000000000000000000000000000081526004016124ab90615702565b60405180910390fd5b80600484846040516124c7929190614d92565b908152602001604051809103902060090160010154101561251d576040517f08c379a000000000000000000000000000000000000000000000000000000000815260040161251490615794565b60405180910390fd5b6004838360405161252f929190614d92565b90815260200160405180910390206009016007018190806001815401808255809150506001900390600052602060002001600090919091909150556004838360405161257c929190614d92565b9081526020016040518091039020600501849080600181540180825580915050600190039060005260206000200160009091909190916101000a81548173ffffffffffffffffffffffffffffffffffffffff021916908373ffffffffffffffffffffffffffffffffffffffff160217905550600360ff1660048484604051612605929190614d92565b90815260200160405180910390206009016007018054905010612bb857600b60048484604051612636929190614d92565b908152602001604051809103902060110160006101000a81548160ff021916908360ff1602179055506000805b60048585604051612675929190614d92565b9081526020016040518091039020600901600701805490508110156126f757600485856040516126a6929190614d92565b908152602001604051809103902060090160070181815481106126cc576126cb614e7a565b5b9060005260206000200154826126e291906157b4565b915080806126ef90614fb8565b915050612663565b506004848460405161270a929190614d92565b9081526020016040518091039020600901600701805490508161272d9190615817565b6004858560405161273f929190614d92565b90815260200160405180910390206009016002018190555060006004858560405161276b929190614d92565b90815260200160405180910390206009016000015460048686604051612792929190614d92565b9081526020016040518091039020600901600101546127b19190614e46565b90506000606461753061ffff1683606460048a8a6040516127d3929190614d92565b90815260200160405180910390206009016000015460048b8b6040516127fa929190614d92565b9081526020016040518091039020600901600201546128199190614e46565b6128239190615848565b61282d9190615817565b6128379190615848565b6128419190615817565b905060008161753061ffff166128579190614e46565b905060006004888860405161286d929190614d92565b9081526020016040518091039020600901600201548360048a8a604051612895929190614d92565b9081526020016040518091039020600801546128b19190614e46565b6128bb9190614e46565b905060008260048a8a6040516128d2929190614d92565b90815260200160405180910390206009016002015461753061ffff166128f891906157b4565b6129029190614e46565b905060048989604051612916929190614d92565b908152602001604051809103902060030160009054906101000a900473ffffffffffffffffffffffffffffffffffffffff1673ffffffffffffffffffffffffffffffffffffffff166108fc839081150290604051600060405180830381858888f1935050505015801561298d573d6000803e3d6000fd5b50600489896040516129a0929190614d92565b908152602001604051809103902060020160009054906101000a900473ffffffffffffffffffffffffffffffffffffffff1673ffffffffffffffffffffffffffffffffffffffff166108fc829081150290604051600060405180830381858888f19350505050158015612a17573d6000803e3d6000fd5b508160048a8a604051612a2b929190614d92565b9081526020016040518091039020600901600301819055508060048a8a604051612a56929190614d92565b9081526020016040518091039020600901600401819055508360048a8a604051612a81929190614d92565b9081526020016040518091039020600901600501819055508260048a8a604051612aac929190614d92565b90815260200160405180910390206009016006018190555060005b60048a8a604051612ad9929190614d92565b908152602001604051809103902060050180549050811015612bb05760048a8a604051612b07929190614d92565b90815260200160405180910390206005018181548110612b2a57612b29614e7a565b5b9060005260206000200160009054906101000a900473ffffffffffffffffffffffffffffffffffffffff1673ffffffffffffffffffffffffffffffffffffffff166108fc6127109081150290604051600060405180830381858888f19350505050158015612b9c573d6000803e3d6000fd5b508080612ba890614fb8565b915050612ac7565b505050505050505b50505050565b612bc6613b8a565b60048383604051612bd8929190614d92565b908152602001604051809103902060405180610160016040529081600082018054612c0290614ed8565b80601f0160208091040260200160405190810160405280929190818152602001828054612c2e90614ed8565b8015612c7b5780601f10612c5057610100808354040283529160200191612c7b565b820191906000526020600020905b815481529060010190602001808311612c5e57829003601f168201915b50505050508152602001600182018054612c9490614ed8565b80601f0160208091040260200160405190810160405280929190818152602001828054612cc090614ed8565b8015612d0d5780601f10612ce257610100808354040283529160200191612d0d565b820191906000526020600020905b815481529060010190602001808311612cf057829003601f168201915b505050505081526020016002820160009054906101000a900473ffffffffffffffffffffffffffffffffffffffff1673ffffffffffffffffffffffffffffffffffffffff1673ffffffffffffffffffffffffffffffffffffffff1681526020016003820160009054906101000a900473ffffffffffffffffffffffffffffffffffffffff1673ffffffffffffffffffffffffffffffffffffffff1673ffffffffffffffffffffffffffffffffffffffff1681526020016004820160009054906101000a900473ffffffffffffffffffffffffffffffffffffffff1673ffffffffffffffffffffffffffffffffffffffff1673ffffffffffffffffffffffffffffffffffffffff16815260200160058201805480602002602001604051908101604052809291908181526020018280548015612e9d57602002820191906000526020600020905b8160009054906101000a900473ffffffffffffffffffffffffffffffffffffffff1673ffffffffffffffffffffffffffffffffffffffff1681526020019060010190808311612e53575b5050505050815260200160068201548152602001600782015481526020016008820154815260200160098201604051806101000160405290816000820154815260200160018201548152602001600282015481526020016003820154815260200160048201548152602001600582015481526020016006820154815260200160078201805480602002602001604051908101604052809291908181526020018280548015612f6a57602002820191906000526020600020905b815481526020019060010190808311612f56575b50505050508152505081526020016011820160009054906101000a900460ff1660ff1660ff1681525050905092915050565b3373ffffffffffffffffffffffffffffffffffffffff1660048484604051612fc5929190614d92565b908152602001604051809103902060020160009054906101000a900473ffffffffffffffffffffffffffffffffffffffff1673ffffffffffffffffffffffffffffffffffffffff161461304d576040517f08c379a0000000000000000000000000000000000000000000000000000000008152600401613044906158fc565b60405180910390fd5b8060048484604051613060929190614d92565b908152602001604051809103902060090160000154106130b5576040517f08c379a00000000000000000000000000000000000000000000000000000000081526004016130ac9061598e565b60405180910390fd5b60048084846040516130c8929190614d92565b908152602001604051809103902060110160006101000a81548160ff021916908360ff1602179055508060048484604051613104929190614d92565b908152602001604051809103902060090160010181905550505050565b6001818154811061313157600080fd5b906000526020600020016000915054906101000a900473ffffffffffffffffffffffffffffffffffffffff1681565b60048180516020810182018051848252602083016020850120818352809550505050505060009150905080600001805461319990614ed8565b80601f01602080910402602001604051908101604052809291908181526020018280546131c590614ed8565b80156132125780601f106131e757610100808354040283529160200191613212565b820191906000526020600020905b8154815290600101906020018083116131f557829003601f168201915b50505050509080600101805461322790614ed8565b80601f016020809104026020016040519081016040528092919081815260200182805461325390614ed8565b80156132a05780601f10613275576101008083540402835291602001916132a0565b820191906000526020600020905b81548152906001019060200180831161328357829003601f168201915b5050505050908060020160009054906101000a900473ffffffffffffffffffffffffffffffffffffffff16908060030160009054906101000a900473ffffffffffffffffffffffffffffffffffffffff16908060040160009054906101000a900473ffffffffffffffffffffffffffffffffffffffff1690806006015490806007015490806008015490806009016040518061010001604052908160008201548152602001600182015481526020016002820154815260200160038201548152602001600482015481526020016005820154815260200160068201548152602001600782018054806020026020016040519081016040528092919081815260200182805480156133cf57602002820191906000526020600020905b8154815260200190600101908083116133bb575b505050505081525050908060110160009054906101000a900460ff1690508a565b8073ffffffffffffffffffffffffffffffffffffffff1660048484604051613419929190614d92565b908152602001604051809103902060020160009054906101000a900473ffffffffffffffffffffffffffffffffffffffff1673ffffffffffffffffffffffffffffffffffffffff16036134a1576040517f08c379a0000000000000000000000000000000000000000000000000000000008152600401613498906159fa565b60405180910390fd5b8073ffffffffffffffffffffffffffffffffffffffff16600484846040516134ca929190614d92565b908152602001604051809103902060030160009054906101000a900473ffffffffffffffffffffffffffffffffffffffff1673ffffffffffffffffffffffffffffffffffffffff1603613552576040517f08c379a000000000000000000000000000000000000000000000000000000000815260040161354990615a66565b60405180910390fd5b8060048484604051613565929190614d92565b908152602001604051809103902060040160006101000a81548173ffffffffffffffffffffffffffffffffffffffff021916908373ffffffffffffffffffffffffffffffffffffffff160217905550600360008273ffffffffffffffffffffffffffffffffffffffff1673ffffffffffffffffffffffffffffffffffffffff168152602001908152602001600020600801838390918060018154018082558091505060019003906000526020600020016000909192909192909192909192509182613631929190615234565b50505050565b60606000600360008473ffffffffffffffffffffffffffffffffffffffff1673ffffffffffffffffffffffffffffffffffffffff1681526020019081526020016000206007018054905067ffffffffffffffff81111561369a57613699614a0f565b5b6040519080825280602002602001820160405280156136d357816020015b6136c0613b8a565b8152602001906001900390816136b85790505b50905060005b600360008573ffffffffffffffffffffffffffffffffffffffff1673ffffffffffffffffffffffffffffffffffffffff16815260200190815260200160002060070180549050811015613b80576004600360008673ffffffffffffffffffffffffffffffffffffffff1673ffffffffffffffffffffffffffffffffffffffff168152602001908152602001600020600701828154811061377c5761377b614e7a565b5b906000526020600020016040516137939190614fa1565b9081526020016040518091039020604051806101600160405290816000820180546137bd90614ed8565b80601f01602080910402602001604051908101604052809291908181526020018280546137e990614ed8565b80156138365780601f1061380b57610100808354040283529160200191613836565b820191906000526020600020905b81548152906001019060200180831161381957829003601f168201915b5050505050815260200160018201805461384f90614ed8565b80601f016020809104026020016040519081016040528092919081815260200182805461387b90614ed8565b80156138c85780601f1061389d576101008083540402835291602001916138c8565b820191906000526020600020905b8154815290600101906020018083116138ab57829003601f168201915b505050505081526020016002820160009054906101000a900473ffffffffffffffffffffffffffffffffffffffff1673ffffffffffffffffffffffffffffffffffffffff1673ffffffffffffffffffffffffffffffffffffffff1681526020016003820160009054906101000a900473ffffffffffffffffffffffffffffffffffffffff1673ffffffffffffffffffffffffffffffffffffffff1673ffffffffffffffffffffffffffffffffffffffff1681526020016004820160009054906101000a900473ffffffffffffffffffffffffffffffffffffffff1673ffffffffffffffffffffffffffffffffffffffff1673ffffffffffffffffffffffffffffffffffffffff16815260200160058201805480602002602001604051908101604052809291908181526020018280548015613a5857602002820191906000526020600020905b8160009054906101000a900473ffffffffffffffffffffffffffffffffffffffff1673ffffffffffffffffffffffffffffffffffffffff1681526020019060010190808311613a0e575b5050505050815260200160068201548152602001600782015481526020016008820154815260200160098201604051806101000160405290816000820154815260200160018201548152602001600282015481526020016003820154815260200160048201548152602001600582015481526020016006820154815260200160078201805480602002602001604051908101604052809291908181526020018280548015613b2557602002820191906000526020600020905b815481526020019060010190808311613b11575b50505050508152505081526020016011820160009054906101000a900460ff1660ff1660ff1681525050828281518110613b6257613b61614e7a565b5b60200260200101819052508080613b7890614fb8565b9150506136d9565b5080915050919050565b6040518061016001604052806060815260200160608152602001600073ffffffffffffffffffffffffffffffffffffffff168152602001600073ffffffffffffffffffffffffffffffffffffffff168152602001600073ffffffffffffffffffffffffffffffffffffffff16815260200160608152602001600081526020016000815260200160008152602001613c1f613c7d565b8152602001600060ff1681525090565b60405180610120016040528060608152602001606081526020016060815260200160001515815260200160008152602001600081526020016060815260200160608152602001606081525090565b60405180610100016040528060008152602001600081526020016000815260200160008152602001600081526020016000815260200160008152602001606081525090565b6000604051905090565b600080fd5b600080fd5b600080fd5b600080fd5b600080fd5b60008083601f840112613cfb57613cfa613cd6565b5b8235905067ffffffffffffffff811115613d1857613d17613cdb565b5b602083019150836001820283011115613d3457613d33613ce0565b5b9250929050565b60008060208385031215613d5257613d51613ccc565b5b600083013567ffffffffffffffff811115613d7057613d6f613cd1565b5b613d7c85828601613ce5565b92509250509250929050565b600073ffffffffffffffffffffffffffffffffffffffff82169050919050565b6000613db382613d88565b9050919050565b613dc381613da8565b8114613dce57600080fd5b50565b600081359050613de081613dba565b92915050565b600060208284031215613dfc57613dfb613ccc565b5b6000613e0a84828501613dd1565b91505092915050565b600081519050919050565b600082825260208201905092915050565b6000819050602082019050919050565b600081519050919050565b600082825260208201905092915050565b60005b83811015613e79578082015181840152602081019050613e5e565b60008484015250505050565b6000601f19601f8301169050919050565b6000613ea182613e3f565b613eab8185613e4a565b9350613ebb818560208601613e5b565b613ec481613e85565b840191505092915050565b6000613eda82613d88565b9050919050565b613eea81613ecf565b82525050565b600081519050919050565b600082825260208201905092915050565b6000819050602082019050919050565b6000613f288383613ee1565b60208301905092915050565b6000602082019050919050565b6000613f4c82613ef0565b613f568185613efb565b9350613f6183613f0c565b8060005b83811015613f92578151613f798882613f1c565b9750613f8483613f34565b925050600181019050613f65565b5085935050505092915050565b6000819050919050565b613fb281613f9f565b82525050565b600081519050919050565b600082825260208201905092915050565b6000819050602082019050919050565b6000613ff08383613fa9565b60208301905092915050565b6000602082019050919050565b600061401482613fb8565b61401e8185613fc3565b935061402983613fd4565b8060005b8381101561405a5781516140418882613fe4565b975061404c83613ffc565b92505060018101905061402d565b5085935050505092915050565b6000610100830160008301516140806000860182613fa9565b5060208301516140936020860182613fa9565b5060408301516140a66040860182613fa9565b5060608301516140b96060860182613fa9565b5060808301516140cc6080860182613fa9565b5060a08301516140df60a0860182613fa9565b5060c08301516140f260c0860182613fa9565b5060e083015184820360e086015261410a8282614009565b9150508091505092915050565b600060ff82169050919050565b61412d81614117565b82525050565b60006101608301600083015184820360008601526141518282613e96565b9150506020830151848203602086015261416b8282613e96565b91505060408301516141806040860182613ee1565b5060608301516141936060860182613ee1565b5060808301516141a66080860182613ee1565b5060a083015184820360a08601526141be8282613f41565b91505060c08301516141d360c0860182613fa9565b5060e08301516141e660e0860182613fa9565b506101008301516141fb610100860182613fa9565b506101208301518482036101208601526142158282614067565b91505061014083015161422c610140860182614124565b508091505092915050565b60006142438383614133565b905092915050565b6000602082019050919050565b600061426382613e13565b61426d8185613e1e565b93508360208202850161427f85613e2f565b8060005b858110156142bb578484038952815161429c8582614237565b94506142a78361424b565b925060208a01995050600181019050614283565b50829750879550505050505092915050565b600060208201905081810360008301526142e78184614258565b905092915050565b60008115159050919050565b614304816142ef565b82525050565b600081519050919050565b600082825260208201905092915050565b6000819050602082019050919050565b60006143428383613e96565b905092915050565b6000602082019050919050565b60006143628261430a565b61436c8185614315565b93508360208202850161437e85614326565b8060005b858110156143ba578484038952815161439b8582614336565b94506143a68361434a565b925060208a01995050600181019050614382565b50829750879550505050505092915050565b60006101208301600083015184820360008601526143ea8282613e96565b915050602083015184820360208601526144048282613e96565b9150506040830151848203604086015261441e8282613e96565b915050606083015161443360608601826142fb565b5060808301516144466080860182613fa9565b5060a083015161445960a0860182613fa9565b5060c083015184820360c08601526144718282614357565b91505060e083015184820360e086015261448b8282614357565b9150506101008301518482036101008601526144a78282614357565b9150508091505092915050565b600060208201905081810360008301526144ce81846143cc565b905092915050565b6144df81613f9f565b81146144ea57600080fd5b50565b6000813590506144fc816144d6565b92915050565b60008060008060008060008060a0898b03121561452257614521613ccc565b5b60006145308b828c01613dd1565b985050602089013567ffffffffffffffff81111561455157614550613cd1565b5b61455d8b828c01613ce5565b9750975050604089013567ffffffffffffffff8111156145805761457f613cd1565b5b61458c8b828c01613ce5565b9550955050606089013567ffffffffffffffff8111156145af576145ae613cd1565b5b6145bb8b828c01613ce5565b935093505060806145ce8b828c016144ed565b9150509295985092959890939650565b6000806000604084860312156145f7576145f6613ccc565b5b600084013567ffffffffffffffff81111561461557614614613cd1565b5b61462186828701613ce5565b93509350506020614634868287016144ed565b9150509250925092565b60006020828403121561465457614653613ccc565b5b6000614662848285016144ed565b91505092915050565b61467481613da8565b82525050565b600060208201905061468f600083018461466b565b92915050565b600082825260208201905092915050565b60006146b182613e3f565b6146bb8185614695565b93506146cb818560208601613e5b565b6146d481613e85565b840191505092915050565b6146e8816142ef565b82525050565b6146f781613f9f565b82525050565b600060c082019050818103600083015261471781896146a6565b9050818103602083015261472b81886146a6565b9050818103604083015261473f81876146a6565b905061474e60608301866146df565b61475b60808301856146ee565b61476860a08301846146ee565b979650505050505050565b600080600080600080600060c0888a03121561479257614791613ccc565b5b60006147a08a828b01613dd1565b97505060206147b18a828b01613dd1565b965050604088013567ffffffffffffffff8111156147d2576147d1613cd1565b5b6147de8a828b01613ce5565b955095505060606147f18a828b016144ed565b93505060806148028a828b016144ed565b92505060a06148138a828b016144ed565b91505092959891949750929550565b6000602082019050818103600083015261483c81846146a6565b905092915050565b61484d81613ecf565b811461485857600080fd5b50565b60008135905061486a81614844565b92915050565b6000806000806060858703121561488a57614889613ccc565b5b60006148988782880161485b565b945050602085013567ffffffffffffffff8111156148b9576148b8613cd1565b5b6148c587828801613ce5565b935093505060406148d8878288016144ed565b91505092959194509250565b60006101608301600083015184820360008601526149028282613e96565b9150506020830151848203602086015261491c8282613e96565b91505060408301516149316040860182613ee1565b5060608301516149446060860182613ee1565b5060808301516149576080860182613ee1565b5060a083015184820360a086015261496f8282613f41565b91505060c083015161498460c0860182613fa9565b5060e083015161499760e0860182613fa9565b506101008301516149ac610100860182613fa9565b506101208301518482036101208601526149c68282614067565b9150506101408301516149dd610140860182614124565b508091505092915050565b60006020820190508181036000830152614a0281846148e4565b905092915050565b600080fd5b7f4e487b7100000000000000000000000000000000000000000000000000000000600052604160045260246000fd5b614a4782613e85565b810181811067ffffffffffffffff82111715614a6657614a65614a0f565b5b80604052505050565b6000614a79613cc2565b9050614a858282614a3e565b919050565b600067ffffffffffffffff821115614aa557614aa4614a0f565b5b614aae82613e85565b9050602081019050919050565b82818337600083830152505050565b6000614add614ad884614a8a565b614a6f565b905082815260208101848484011115614af957614af8614a0a565b5b614b04848285614abb565b509392505050565b600082601f830112614b2157614b20613cd6565b5b8135614b31848260208601614aca565b91505092915050565b600060208284031215614b5057614b4f613ccc565b5b600082013567ffffffffffffffff811115614b6e57614b6d613cd1565b5b614b7a84828501614b0c565b91505092915050565b614b8c81613ecf565b82525050565b600061010083016000830151614bab6000860182613fa9565b506020830151614bbe6020860182613fa9565b506040830151614bd16040860182613fa9565b506060830151614be46060860182613fa9565b506080830151614bf76080860182613fa9565b5060a0830151614c0a60a0860182613fa9565b5060c0830151614c1d60c0860182613fa9565b5060e083015184820360e0860152614c358282614009565b9150508091505092915050565b614c4b81614117565b82525050565b6000610140820190508181036000830152614c6c818d6146a6565b90508181036020830152614c80818c6146a6565b9050614c8f604083018b614b83565b614c9c606083018a614b83565b614ca96080830189614b83565b614cb660a08301886146ee565b614cc360c08301876146ee565b614cd060e08301866146ee565b818103610100830152614ce38185614b92565b9050614cf3610120830184614c42565b9b9a5050505050505050505050565b600080600060408486031215614d1b57614d1a613ccc565b5b600084013567ffffffffffffffff811115614d3957614d38613cd1565b5b614d4586828701613ce5565b93509350506020614d5886828701613dd1565b9150509250925092565b600081905092915050565b6000614d798385614d62565b9350614d86838584614abb565b82840190509392505050565b6000614d9f828486614d6d565b91508190509392505050565b7f4f6e6c79204c616e646c6f72642063616e20536574746c652044616d61676573600082015250565b6000614de1602083614695565b9150614dec82614dab565b602082019050919050565b60006020820190508181036000830152614e1081614dd4565b9050919050565b7f4e487b7100000000000000000000000000000000000000000000000000000000600052601160045260246000fd5b6000614e5182613f9f565b9150614e5c83613f9f565b9250828203905081811115614e7457614e73614e17565b5b92915050565b7f4e487b7100000000000000000000000000000000000000000000000000000000600052603260045260246000fd5b7f4e487b7100000000000000000000000000000000000000000000000000000000600052602260045260246000fd5b60006002820490506001821680614ef057607f821691505b602082108103614f0357614f02614ea9565b5b50919050565b60008190508160005260206000209050919050565b60008154614f2b81614ed8565b614f358186614d62565b94506001821660008114614f505760018114614f6557614f98565b60ff1983168652811515820286019350614f98565b614f6e85614f09565b60005b83811015614f9057815481890152600182019150602081019050614f71565b838801955050505b50505092915050565b6000614fad8284614f1e565b915081905092915050565b6000614fc382613f9f565b91507fffffffffffffffffffffffffffffffffffffffffffffffffffffffffffffffff8203614ff557614ff4614e17565b5b600182019050919050565b7f5665727920506f6f72204372656469742e20496d70726f766520796f7572206360008201527f72656469742053636f726520616e642074727920616761696e00000000000000602082015250565b600061505c603983614695565b915061506782615000565b604082019050919050565b6000602082019050818103600083015261508b8161504f565b9050919050565b600082905092915050565b60006020601f8301049050919050565b600082821b905092915050565b6000600883026150ea7fffffffffffffffffffffffffffffffffffffffffffffffffffffffffffffffff826150ad565b6150f486836150ad565b95508019841693508086168417925050509392505050565b6000819050919050565b600061513161512c61512784613f9f565b61510c565b613f9f565b9050919050565b6000819050919050565b61514b83615116565b61515f61515782615138565b8484546150ba565b825550505050565b600090565b615174615167565b61517f818484615142565b505050565b5b818110156151a35761519860008261516c565b600181019050615185565b5050565b601f8211156151e8576151b981614f09565b6151c28461509d565b810160208510156151d1578190505b6151e56151dd8561509d565b830182615184565b50505b505050565b600082821c905092915050565b600061520b600019846008026151ed565b1980831691505092915050565b600061522483836151fa565b9150826002028217905092915050565b61523e8383615092565b67ffffffffffffffff81111561525757615256614a0f565b5b6152618254614ed8565b61526c8282856151a7565b6000601f83116001811461529b5760008415615289578287013590505b6152938582615218565b8655506152fb565b601f1984166152a986614f09565b60005b828110156152d1578489013582556001820191506020850194506020810190506152ac565b868310156152ee57848901356152ea601f8916826151fa565b8355505b6001600288020188555050505b50505050505050565b7f4f6e6c792054656e616e742043616e205661636174652050726f706572747900600082015250565b600061533a601f83614695565b915061534582615304565b602082019050919050565b600060208201905081810360008301526153698161532d565b9050919050565b7f4f6e6c792054656e616e742043616e205061792052656e740000000000000000600082015250565b60006153a6601883614695565b91506153b182615370565b602082019050919050565b600060208201905081810360008301526153d581615399565b9050919050565b7f4f6e6c792054656e616e742043616e20417574686f72697a652041677265656d60008201527f656e740000000000000000000000000000000000000000000000000000000000602082015250565b6000615438602383614695565b9150615443826153dc565b604082019050919050565b600060208201905081810360008301526154678161542b565b9050919050565b7f52656e742048617320746f2062652067726561746572207468616e205a65726f600082015250565b60006154a4602083614695565b91506154af8261546e565b602082019050919050565b600060208201905081810360008301526154d381615497565b9050919050565b7f4465706f7369742048617320746f2062652067726561746572207468616e205a60008201527f65726f0000000000000000000000000000000000000000000000000000000000602082015250565b6000615536602383614695565b9150615541826154da565b604082019050919050565b6000602082019050818103600083015261556581615529565b9050919050565b7f4c616e646c6f72642063616e6e6f7420626520496e646570656e64656e74204160008201527f73736573736f7200000000000000000000000000000000000000000000000000602082015250565b60006155c8602783614695565b91506155d38261556c565b604082019050919050565b600060208201905081810360008301526155f7816155bb565b9050919050565b7f54656e616e742063616e6e6f7420626520496e646570656e64656e742041737360008201527f6573736f72000000000000000000000000000000000000000000000000000000602082015250565b600061565a602583614695565b9150615665826155fe565b604082019050919050565b600060208201905081810360008301526156898161564d565b9050919050565b7f596f757220657374696d746174652063616e6e6f74206265206c6f776572207460008201527f68616e2054656e616e7420457374696d61746500000000000000000000000000602082015250565b60006156ec603383614695565b91506156f782615690565b604082019050919050565b6000602082019050818103600083015261571b816156df565b9050919050565b7f596f757220657374696d746174652063616e6e6f74206265206869676865722060008201527f7468616e204c616e646c6f726420457374696d61746500000000000000000000602082015250565b600061577e603683614695565b915061578982615722565b604082019050919050565b600060208201905081810360008301526157ad81615771565b9050919050565b60006157bf82613f9f565b91506157ca83613f9f565b92508282019050808211156157e2576157e1614e17565b5b92915050565b7f4e487b7100000000000000000000000000000000000000000000000000000000600052601260045260246000fd5b600061582282613f9f565b915061582d83613f9f565b92508261583d5761583c6157e8565b5b828204905092915050565b600061585382613f9f565b915061585e83613f9f565b925082820261586c81613f9f565b9150828204841483151761588357615882614e17565b5b5092915050565b7f4f6e6c79204c616e646c6f72642063616e20526169736520612044697370757460008201527f6500000000000000000000000000000000000000000000000000000000000000602082015250565b60006158e6602183614695565b91506158f18261588a565b604082019050919050565b60006020820190508181036000830152615915816158d9565b9050919050565b7f4e6f2044697370757465202d2054656e616e7420697320726561647920746f2060008201527f706179206d6f7265207468616e207768617420796f752077616e742e00000000602082015250565b6000615978603c83614695565b91506159838261591c565b604082019050919050565b600060208201905081810360008301526159a78161596b565b9050919050565b7f4c616e646c6f72642043616e6e6f74206265207468652047756172616e746f72600082015250565b60006159e4602083614695565b91506159ef826159ae565b602082019050919050565b60006020820190508181036000830152615a13816159d7565b9050919050565b7f54656e616e742043616e6e6f74206265207468652047756172616e746f720000600082015250565b6000615a50601e83614695565b9150615a5b82615a1a565b602082019050919050565b60006020820190508181036000830152615a7f81615a43565b905091905056fea2646970667358221220f699b2f3e0ec8be75885863873388c40d0d05a521703cb3f80b351d096a7eab264736f6c63430008110033",
  "linkReferences": {},
  "deployedLinkReferences": {}
}